{
  "contractName": "SuperWorldToken",
  "abi": [
    {
      "constant": true,
      "inputs": [],
      "name": "name",
      "outputs": [
        {
          "name": "",
          "type": "string"
        }
      ],
      "payable": false,
      "stateMutability": "view",
      "type": "function"
    },
    {
      "constant": true,
      "inputs": [
        {
          "name": "_tokenId",
          "type": "uint256"
        }
      ],
      "name": "getApproved",
      "outputs": [
        {
          "name": "",
          "type": "address"
        }
      ],
      "payable": false,
      "stateMutability": "view",
      "type": "function"
    },
    {
      "constant": false,
      "inputs": [
        {
          "name": "_to",
          "type": "address"
        },
        {
          "name": "_tokenId",
          "type": "uint256"
        }
      ],
      "name": "approve",
      "outputs": [],
      "payable": false,
      "stateMutability": "nonpayable",
      "type": "function"
    },
    {
      "constant": true,
      "inputs": [],
      "name": "superWorldCoin",
      "outputs": [
        {
          "name": "",
          "type": "address"
        }
      ],
      "payable": false,
      "stateMutability": "view",
      "type": "function"
    },
    {
      "constant": true,
      "inputs": [
        {
          "name": "",
          "type": "uint256"
        }
      ],
      "name": "boughtPrices",
      "outputs": [
        {
          "name": "",
          "type": "uint256"
        }
      ],
      "payable": false,
      "stateMutability": "view",
      "type": "function"
    },
    {
      "constant": true,
      "inputs": [],
      "name": "totalSupply",
      "outputs": [
        {
          "name": "",
          "type": "uint256"
        }
      ],
      "payable": false,
      "stateMutability": "view",
      "type": "function"
    },
    {
      "constant": true,
      "inputs": [],
      "name": "buyId",
      "outputs": [
        {
          "name": "",
          "type": "uint256"
        }
      ],
      "payable": false,
      "stateMutability": "view",
      "type": "function"
    },
    {
      "constant": false,
      "inputs": [
        {
          "name": "_from",
          "type": "address"
        },
        {
          "name": "_to",
          "type": "address"
        },
        {
          "name": "_tokenId",
          "type": "uint256"
        }
      ],
      "name": "transferFrom",
      "outputs": [],
      "payable": false,
      "stateMutability": "nonpayable",
      "type": "function"
    },
    {
      "constant": true,
      "inputs": [
        {
          "name": "_owner",
          "type": "address"
        },
        {
          "name": "_index",
          "type": "uint256"
        }
      ],
      "name": "tokenOfOwnerByIndex",
      "outputs": [
        {
          "name": "",
          "type": "uint256"
        }
      ],
      "payable": false,
      "stateMutability": "view",
      "type": "function"
    },
    {
      "constant": true,
      "inputs": [
        {
          "name": "",
          "type": "uint256"
        }
      ],
      "name": "basePrices",
      "outputs": [
        {
          "name": "",
          "type": "uint256"
        }
      ],
      "payable": false,
      "stateMutability": "view",
      "type": "function"
    },
    {
      "constant": false,
      "inputs": [
        {
          "name": "_from",
          "type": "address"
        },
        {
          "name": "_to",
          "type": "address"
        },
        {
          "name": "_tokenId",
          "type": "uint256"
        }
      ],
      "name": "safeTransferFrom",
      "outputs": [],
      "payable": false,
      "stateMutability": "nonpayable",
      "type": "function"
    },
    {
      "constant": true,
      "inputs": [
        {
          "name": "_tokenId",
          "type": "uint256"
        }
      ],
      "name": "exists",
      "outputs": [
        {
          "name": "",
          "type": "bool"
        }
      ],
      "payable": false,
      "stateMutability": "view",
      "type": "function"
    },
    {
      "constant": true,
      "inputs": [
        {
          "name": "_index",
          "type": "uint256"
        }
      ],
      "name": "tokenByIndex",
      "outputs": [
        {
          "name": "",
          "type": "uint256"
        }
      ],
      "payable": false,
      "stateMutability": "view",
      "type": "function"
    },
    {
      "constant": true,
      "inputs": [
        {
          "name": "",
          "type": "uint256"
        },
        {
          "name": "",
          "type": "uint256"
        }
      ],
      "name": "tokenHistories",
      "outputs": [
        {
          "name": "tokenId",
          "type": "uint256"
        },
        {
          "name": "owner",
          "type": "address"
        },
        {
          "name": "price",
          "type": "uint256"
        }
      ],
      "payable": false,
      "stateMutability": "view",
      "type": "function"
    },
    {
      "constant": true,
      "inputs": [
        {
          "name": "_tokenId",
          "type": "uint256"
        }
      ],
      "name": "ownerOf",
      "outputs": [
        {
          "name": "",
          "type": "address"
        }
      ],
      "payable": false,
      "stateMutability": "view",
      "type": "function"
    },
    {
      "constant": true,
      "inputs": [
        {
          "name": "",
          "type": "uint256"
        }
      ],
      "name": "sellPrices",
      "outputs": [
        {
          "name": "",
          "type": "uint256"
        }
      ],
      "payable": false,
      "stateMutability": "view",
      "type": "function"
    },
    {
      "constant": true,
      "inputs": [
        {
          "name": "_owner",
          "type": "address"
        }
      ],
      "name": "balanceOf",
      "outputs": [
        {
          "name": "",
          "type": "uint256"
        }
      ],
      "payable": false,
      "stateMutability": "view",
      "type": "function"
    },
    {
      "constant": true,
      "inputs": [
        {
          "name": "",
          "type": "uint256"
        }
      ],
      "name": "buyIds",
      "outputs": [
        {
          "name": "",
          "type": "uint256"
        }
      ],
      "payable": false,
      "stateMutability": "view",
      "type": "function"
    },
    {
      "constant": true,
      "inputs": [],
      "name": "owner",
      "outputs": [
        {
          "name": "",
          "type": "address"
        }
      ],
      "payable": false,
      "stateMutability": "view",
      "type": "function"
    },
    {
      "constant": true,
      "inputs": [],
      "name": "symbol",
      "outputs": [
        {
          "name": "",
          "type": "string"
        }
      ],
      "payable": false,
      "stateMutability": "view",
      "type": "function"
    },
    {
      "constant": true,
      "inputs": [],
      "name": "listId",
      "outputs": [
        {
          "name": "",
          "type": "uint256"
        }
      ],
      "payable": false,
      "stateMutability": "view",
      "type": "function"
    },
    {
      "constant": false,
      "inputs": [
        {
          "name": "_to",
          "type": "address"
        },
        {
          "name": "_approved",
          "type": "bool"
        }
      ],
      "name": "setApprovalForAll",
      "outputs": [],
      "payable": false,
      "stateMutability": "nonpayable",
      "type": "function"
    },
    {
      "constant": false,
      "inputs": [
        {
          "name": "_from",
          "type": "address"
        },
        {
          "name": "_to",
          "type": "address"
        },
        {
          "name": "_tokenId",
          "type": "uint256"
        },
        {
          "name": "_data",
          "type": "bytes"
        }
      ],
      "name": "safeTransferFrom",
      "outputs": [],
      "payable": false,
      "stateMutability": "nonpayable",
      "type": "function"
    },
    {
      "constant": true,
      "inputs": [],
      "name": "basePrice",
      "outputs": [
        {
          "name": "",
          "type": "uint256"
        }
      ],
      "payable": false,
      "stateMutability": "view",
      "type": "function"
    },
    {
      "constant": true,
      "inputs": [
        {
          "name": "",
          "type": "uint256"
        }
      ],
      "name": "isSellings",
      "outputs": [
        {
          "name": "",
          "type": "bool"
        }
      ],
      "payable": false,
      "stateMutability": "view",
      "type": "function"
    },
    {
      "constant": true,
      "inputs": [
        {
          "name": "_tokenId",
          "type": "uint256"
        }
      ],
      "name": "tokenURI",
      "outputs": [
        {
          "name": "",
          "type": "string"
        }
      ],
      "payable": false,
      "stateMutability": "view",
      "type": "function"
    },
    {
      "constant": true,
      "inputs": [
        {
          "name": "_owner",
          "type": "address"
        },
        {
          "name": "_operator",
          "type": "address"
        }
      ],
      "name": "isApprovedForAll",
      "outputs": [
        {
          "name": "",
          "type": "bool"
        }
      ],
      "payable": false,
      "stateMutability": "view",
      "type": "function"
    },
    {
      "constant": true,
      "inputs": [],
      "name": "percentageCut",
      "outputs": [
        {
          "name": "",
          "type": "uint256"
        }
      ],
      "payable": false,
      "stateMutability": "view",
      "type": "function"
    },
    {
      "constant": true,
      "inputs": [],
      "name": "coinAddress",
      "outputs": [
        {
          "name": "",
          "type": "address"
        }
      ],
      "payable": false,
      "stateMutability": "view",
      "type": "function"
    },
    {
      "inputs": [
        {
          "name": "_coinAddress",
          "type": "address"
        },
        {
          "name": "_percentageCut",
          "type": "uint256"
        },
        {
          "name": "_basePrice",
          "type": "uint256"
        }
      ],
      "payable": false,
      "stateMutability": "nonpayable",
      "type": "constructor"
    },
    {
      "anonymous": false,
      "inputs": [
        {
          "indexed": false,
          "name": "buyId",
          "type": "uint256"
        },
        {
          "indexed": false,
          "name": "lon",
          "type": "string"
        },
        {
          "indexed": false,
          "name": "lat",
          "type": "string"
        },
        {
          "indexed": true,
          "name": "buyer",
          "type": "address"
        },
        {
          "indexed": true,
          "name": "seller",
          "type": "address"
        },
        {
          "indexed": false,
          "name": "price",
          "type": "uint256"
        },
        {
          "indexed": false,
          "name": "timestamp",
          "type": "uint256"
        }
      ],
      "name": "EventBuyToken",
      "type": "event"
    },
    {
      "anonymous": false,
      "inputs": [
        {
          "indexed": false,
          "name": "buyId",
          "type": "uint256"
        },
        {
          "indexed": false,
          "name": "lon",
          "type": "string"
        },
        {
          "indexed": false,
          "name": "lat",
          "type": "string"
        },
        {
          "indexed": true,
          "name": "buyer",
          "type": "address"
        },
        {
          "indexed": true,
          "name": "seller",
          "type": "address"
        },
        {
          "indexed": false,
          "name": "price",
          "type": "uint256"
        },
        {
          "indexed": false,
          "name": "timestamp",
          "type": "uint256"
        }
      ],
      "name": "EventBuyTokenFail",
      "type": "event"
    },
    {
      "anonymous": false,
      "inputs": [
        {
          "indexed": false,
          "name": "buyId",
          "type": "uint256"
        },
        {
          "indexed": true,
          "name": "tokenId1",
          "type": "uint256"
        },
        {
          "indexed": false,
          "name": "lon",
          "type": "string"
        },
        {
          "indexed": false,
          "name": "lat",
          "type": "string"
        },
        {
          "indexed": false,
          "name": "buyer",
          "type": "address"
        },
        {
          "indexed": false,
          "name": "seller",
          "type": "address"
        },
        {
          "indexed": false,
          "name": "price",
          "type": "uint256"
        },
        {
          "indexed": false,
          "name": "timestamp",
          "type": "uint256"
        }
      ],
      "name": "EventBuyTokenId1",
      "type": "event"
    },
    {
      "anonymous": false,
      "inputs": [
        {
          "indexed": false,
          "name": "listId",
          "type": "uint256"
        },
        {
          "indexed": false,
          "name": "buyId",
          "type": "uint256"
        },
        {
          "indexed": false,
          "name": "lon",
          "type": "string"
        },
        {
          "indexed": false,
          "name": "lat",
          "type": "string"
        },
        {
          "indexed": true,
          "name": "seller",
          "type": "address"
        },
        {
          "indexed": false,
          "name": "price",
          "type": "uint256"
        },
        {
          "indexed": false,
          "name": "isListed",
          "type": "bool"
        },
        {
          "indexed": false,
          "name": "timestamp",
          "type": "uint256"
        }
      ],
      "name": "EventListToken",
      "type": "event"
    },
    {
      "anonymous": false,
      "inputs": [
        {
          "indexed": false,
          "name": "listId",
          "type": "uint256"
        },
        {
          "indexed": false,
          "name": "buyId",
          "type": "uint256"
        },
        {
          "indexed": true,
          "name": "tokenId1",
          "type": "uint256"
        },
        {
          "indexed": false,
          "name": "lon",
          "type": "string"
        },
        {
          "indexed": false,
          "name": "lat",
          "type": "string"
        },
        {
          "indexed": false,
          "name": "seller",
          "type": "address"
        },
        {
          "indexed": false,
          "name": "price",
          "type": "uint256"
        },
        {
          "indexed": false,
          "name": "isListed",
          "type": "bool"
        },
        {
          "indexed": false,
          "name": "timestamp",
          "type": "uint256"
        }
      ],
      "name": "EventListTokenId1",
      "type": "event"
    },
    {
      "anonymous": false,
      "inputs": [
        {
          "indexed": false,
          "name": "buyer",
          "type": "address"
        },
        {
          "indexed": false,
          "name": "coins",
          "type": "uint256"
        },
        {
          "indexed": false,
          "name": "_coinAddress",
          "type": "address"
        },
        {
          "indexed": false,
          "name": "_data",
          "type": "bytes32"
        }
      ],
      "name": "EventReceiveApproval",
      "type": "event"
    },
    {
      "anonymous": false,
      "inputs": [
        {
          "indexed": true,
          "name": "_from",
          "type": "address"
        },
        {
          "indexed": true,
          "name": "_to",
          "type": "address"
        },
        {
          "indexed": false,
          "name": "_tokenId",
          "type": "uint256"
        }
      ],
      "name": "Transfer",
      "type": "event"
    },
    {
      "anonymous": false,
      "inputs": [
        {
          "indexed": true,
          "name": "_owner",
          "type": "address"
        },
        {
          "indexed": true,
          "name": "_approved",
          "type": "address"
        },
        {
          "indexed": false,
          "name": "_tokenId",
          "type": "uint256"
        }
      ],
      "name": "Approval",
      "type": "event"
    },
    {
      "anonymous": false,
      "inputs": [
        {
          "indexed": true,
          "name": "_owner",
          "type": "address"
        },
        {
          "indexed": true,
          "name": "_operator",
          "type": "address"
        },
        {
          "indexed": false,
          "name": "_approved",
          "type": "bool"
        }
      ],
      "name": "ApprovalForAll",
      "type": "event"
    },
    {
      "constant": false,
      "inputs": [
        {
          "name": "_basePrice",
          "type": "uint256"
        }
      ],
      "name": "setBasePrice",
      "outputs": [],
      "payable": false,
      "stateMutability": "nonpayable",
      "type": "function"
    },
    {
      "constant": false,
      "inputs": [
        {
          "name": "lon",
          "type": "string"
        },
        {
          "name": "lat",
          "type": "string"
        },
        {
          "name": "_basePrice",
          "type": "uint256"
        }
      ],
      "name": "setBasePrice",
      "outputs": [],
      "payable": false,
      "stateMutability": "nonpayable",
      "type": "function"
    },
    {
      "constant": false,
      "inputs": [
        {
          "name": "_percentageCut",
          "type": "uint256"
        }
      ],
      "name": "setPercentageCut",
      "outputs": [],
      "payable": false,
      "stateMutability": "nonpayable",
      "type": "function"
    },
    {
      "constant": true,
      "inputs": [
        {
          "name": "lon",
          "type": "string"
        },
        {
          "name": "lat",
          "type": "string"
        }
      ],
      "name": "getTokenId",
      "outputs": [
        {
          "name": "",
          "type": "uint256"
        }
      ],
      "payable": false,
      "stateMutability": "pure",
      "type": "function"
    },
    {
      "constant": true,
      "inputs": [
        {
          "name": "lon",
          "type": "string"
        },
        {
          "name": "lat",
          "type": "string"
        }
      ],
      "name": "getInfo",
      "outputs": [
        {
          "name": "",
          "type": "uint256"
        },
        {
          "name": "",
          "type": "address"
        },
        {
          "name": "",
          "type": "bool"
        },
        {
          "name": "",
          "type": "bool"
        },
        {
          "name": "",
          "type": "uint256"
        }
      ],
      "payable": false,
      "stateMutability": "view",
      "type": "function"
    },
    {
      "constant": false,
      "inputs": [
        {
          "name": "buyer",
          "type": "address"
        },
        {
          "name": "coins",
          "type": "uint256"
        },
        {
          "name": "_coinAddress",
          "type": "address"
        },
        {
          "name": "_data",
          "type": "bytes32"
        }
      ],
      "name": "receiveApproval",
      "outputs": [],
      "payable": false,
      "stateMutability": "nonpayable",
      "type": "function"
    },
    {
      "constant": false,
      "inputs": [
        {
          "name": "buyer",
          "type": "address"
        },
        {
          "name": "coins",
          "type": "uint256"
        },
        {
          "name": "lon",
          "type": "string"
        },
        {
          "name": "lat",
          "type": "string"
        }
      ],
      "name": "buyTokenWithCoins",
      "outputs": [
        {
          "name": "",
          "type": "bool"
        }
      ],
      "payable": false,
      "stateMutability": "nonpayable",
      "type": "function"
    },
    {
      "constant": false,
      "inputs": [
        {
          "name": "lon",
          "type": "string"
        },
        {
          "name": "lat",
          "type": "string"
        }
      ],
      "name": "buyToken",
      "outputs": [
        {
          "name": "",
          "type": "bool"
        }
      ],
      "payable": true,
      "stateMutability": "payable",
      "type": "function"
    },
    {
      "constant": false,
      "inputs": [
        {
          "name": "lon",
          "type": "string"
        },
        {
          "name": "lat",
          "type": "string"
        },
        {
          "name": "sellPrice",
          "type": "uint256"
        }
      ],
      "name": "listToken",
      "outputs": [],
      "payable": false,
      "stateMutability": "nonpayable",
      "type": "function"
    },
    {
      "constant": false,
      "inputs": [
        {
          "name": "lon",
          "type": "string"
        },
        {
          "name": "lat",
          "type": "string"
        }
      ],
      "name": "delistToken",
      "outputs": [],
      "payable": false,
      "stateMutability": "nonpayable",
      "type": "function"
    },
    {
      "constant": true,
      "inputs": [
        {
          "name": "tokenId",
          "type": "uint256"
        }
      ],
      "name": "getPrice",
      "outputs": [
        {
          "name": "",
          "type": "uint256"
        }
      ],
      "payable": false,
      "stateMutability": "view",
      "type": "function"
    },
    {
      "constant": true,
      "inputs": [
        {
          "name": "str",
          "type": "string"
        },
        {
          "name": "decimal",
          "type": "uint256"
        }
      ],
      "name": "truncateDecimals",
      "outputs": [
        {
          "name": "",
          "type": "string"
        }
      ],
      "payable": false,
      "stateMutability": "pure",
      "type": "function"
    },
    {
      "constant": false,
      "inputs": [],
      "name": "withdrawBalance",
      "outputs": [],
      "payable": false,
      "stateMutability": "nonpayable",
      "type": "function"
    }
  ],
  "bytecode": "0x6080604052600060105560006011553480156200001b57600080fd5b50604051606080620048ab8339810180604052810190808051906020019092919080519060200190929190805190602001909291905050506040805190810160405280600a81526020017f5375706572576f726c64000000000000000000000000000000000000000000008152506040805190810160405280600a81526020017f5355504552574f524c44000000000000000000000000000000000000000000008152508160049080519060200190620000d7929190620001ff565b508060059080519060200190620000f0929190620001ff565b50505033600b60006101000a81548173ffffffffffffffffffffffffffffffffffffffff021916908373ffffffffffffffffffffffffffffffffffffffff16021790555082600c60006101000a81548173ffffffffffffffffffffffffffffffffffffffff021916908373ffffffffffffffffffffffffffffffffffffffff160217905550600c60009054906101000a900473ffffffffffffffffffffffffffffffffffffffff16600d60006101000a81548173ffffffffffffffffffffffffffffffffffffffff021916908373ffffffffffffffffffffffffffffffffffffffff16021790555081600e8190555080600f8190555060006010819055506000601181905550505050620002ae565b828054600181600116156101000203166002900490600052602060002090601f016020900481019282601f106200024257805160ff191683800117855562000273565b8280016001018555821562000273579182015b828111156200027257825182559160200191906001019062000255565b5b50905062000282919062000286565b5090565b620002ab91905b80821115620002a75760008160009055506001016200028d565b5090565b90565b6145ed80620002be6000396000f300608060405260043610610204576000357c0100000000000000000000000000000000000000000000000000000000900463ffffffff16806306fdde0314610209578063081812fc14610299578063095ea7b314610306578063104652f11461035357806315677816146103aa57806318160ddd146103eb5780631f9aa821146104165780632039eeff1461052957806323b872dd146105545780632f745c59146105c15780633818d1a81461062257806342842e0e146106635780634f558e79146106d05780634f6ccce71461071557806355db4f83146107565780635fd8c710146107db5780636352211e146107f25780636941f6b31461085f5780636ee90d621461094b57806370a082311461098c578063733bf2f2146109e35780637363257a14610a105780638da5cb5b14610a5157806395d89b4114610aa85780639e898e5814610b38578063a22cb46514610b63578063ad8b9edc14610bb2578063b2e6357514610c6c578063b88d4fde14610d1b578063c172f9c914610dce578063c7876ea414610e49578063c7b8de7314610e74578063c87b56dd14610eb9578063de4b326214610f5f578063e22023ae14610f8c578063e683ff071461104f578063e757223014611108578063e81bc1ad14611149578063e985e9c514611202578063ecf582fa1461127d578063f4f422461461136e578063fdc61dd114611399575b600080fd5b34801561021557600080fd5b5061021e6113f0565b6040518080602001828103825283818151815260200191508051906020019080838360005b8381101561025e578082015181840152602081019050610243565b50505050905090810190601f16801561028b5780820380516001836020036101000a031916815260200191505b509250505060405180910390f35b3480156102a557600080fd5b506102c460048036038101908080359060200190929190505050611492565b604051808273ffffffffffffffffffffffffffffffffffffffff1673ffffffffffffffffffffffffffffffffffffffff16815260200191505060405180910390f35b34801561031257600080fd5b50610351600480360381019080803573ffffffffffffffffffffffffffffffffffffffff169060200190929190803590602001909291905050506114cf565b005b34801561035f57600080fd5b50610368611695565b604051808273ffffffffffffffffffffffffffffffffffffffff1673ffffffffffffffffffffffffffffffffffffffff16815260200191505060405180910390f35b3480156103b657600080fd5b506103d5600480360381019080803590602001909291905050506116bb565b6040518082815260200191505060405180910390f35b3480156103f757600080fd5b506104006116d3565b6040518082815260200191505060405180910390f35b34801561042257600080fd5b506104c3600480360381019080803590602001908201803590602001908080601f0160208091040260200160405190810160405280939291908181526020018383808284378201915050505050509192919290803590602001908201803590602001908080601f01602080910402602001604051908101604052809392919081815260200183838082843782019150505050505091929192905050506116e0565b604051808681526020018573ffffffffffffffffffffffffffffffffffffffff1673ffffffffffffffffffffffffffffffffffffffff16815260200184151515158152602001831515151581526020018281526020019550505050505060405180910390f35b34801561053557600080fd5b5061053e611799565b6040518082815260200191505060405180910390f35b34801561056057600080fd5b506105bf600480360381019080803573ffffffffffffffffffffffffffffffffffffffff169060200190929190803573ffffffffffffffffffffffffffffffffffffffff1690602001909291908035906020019092919050505061179f565b005b3480156105cd57600080fd5b5061060c600480360381019080803573ffffffffffffffffffffffffffffffffffffffff169060200190929190803590602001909291905050506118b6565b6040518082815260200191505060405180910390f35b34801561062e57600080fd5b5061064d6004803603810190808035906020019092919050505061192d565b6040518082815260200191505060405180910390f35b34801561066f57600080fd5b506106ce600480360381019080803573ffffffffffffffffffffffffffffffffffffffff169060200190929190803573ffffffffffffffffffffffffffffffffffffffff16906020019092919080359060200190929190505050611945565b005b3480156106dc57600080fd5b506106fb6004803603810190808035906020019092919050505061197d565b604051808215151515815260200191505060405180910390f35b34801561072157600080fd5b50610740600480360381019080803590602001909291905050506119ee565b6040518082815260200191505060405180910390f35b34801561076257600080fd5b5061078b6004803603810190808035906020019092919080359060200190929190505050611a26565b604051808481526020018373ffffffffffffffffffffffffffffffffffffffff1673ffffffffffffffffffffffffffffffffffffffff168152602001828152602001935050505060405180910390f35b3480156107e757600080fd5b506107f0611a8c565b005b3480156107fe57600080fd5b5061081d60048036038101908080359060200190929190505050611b70565b604051808273ffffffffffffffffffffffffffffffffffffffff1673ffffffffffffffffffffffffffffffffffffffff16815260200191505060405180910390f35b34801561086b57600080fd5b506108d0600480360381019080803590602001908201803590602001908080601f016020809104026020016040519081016040528093929190818152602001838380828437820191505050505050919291929080359060200190929190505050611bed565b6040518080602001828103825283818151815260200191508051906020019080838360005b838110156109105780820151818401526020810190506108f5565b50505050905090810190601f16801561093d5780820380516001836020036101000a031916815260200191505b509250505060405180910390f35b34801561095757600080fd5b5061097660048036038101908080359060200190929190505050611cfe565b6040518082815260200191505060405180910390f35b34801561099857600080fd5b506109cd600480360381019080803573ffffffffffffffffffffffffffffffffffffffff169060200190929190505050611d16565b6040518082815260200191505060405180910390f35b3480156109ef57600080fd5b50610a0e60048036038101908080359060200190929190505050611d9a565b005b348015610a1c57600080fd5b50610a3b60048036038101908080359060200190929190505050611e0f565b6040518082815260200191505060405180910390f35b348015610a5d57600080fd5b50610a66611e27565b604051808273ffffffffffffffffffffffffffffffffffffffff1673ffffffffffffffffffffffffffffffffffffffff16815260200191505060405180910390f35b348015610ab457600080fd5b50610abd611e4d565b6040518080602001828103825283818151815260200191508051906020019080838360005b83811015610afd578082015181840152602081019050610ae2565b50505050905090810190601f168015610b2a5780820380516001836020036101000a031916815260200191505b509250505060405180910390f35b348015610b4457600080fd5b50610b4d611eef565b6040518082815260200191505060405180910390f35b348015610b6f57600080fd5b50610bb0600480360381019080803573ffffffffffffffffffffffffffffffffffffffff169060200190929190803515159060200190929190505050611ef5565b005b610c52600480360381019080803590602001908201803590602001908080601f0160208091040260200160405190810160405280939291908181526020018383808284378201915050505050509192919290803590602001908201803590602001908080601f0160208091040260200160405190810160405280939291908181526020018383808284378201915050505050509192919290505050612031565b604051808215151515815260200191505060405180910390f35b348015610c7857600080fd5b50610d19600480360381019080803590602001908201803590602001908080601f0160208091040260200160405190810160405280939291908181526020018383808284378201915050505050509192919290803590602001908201803590602001908080601f01602080910402602001604051908101604052809392919081815260200183838082843782019150505050505091929192905050506123ce565b005b348015610d2757600080fd5b50610dcc600480360381019080803573ffffffffffffffffffffffffffffffffffffffff169060200190929190803573ffffffffffffffffffffffffffffffffffffffff16906020019092919080359060200190929190803590602001908201803590602001908080601f01602080910402602001604051908101604052809392919081815260200183838082843782019150505050505091929192905050506124c8565b005b348015610dda57600080fd5b50610e47600480360381019080803573ffffffffffffffffffffffffffffffffffffffff16906020019092919080359060200190929190803573ffffffffffffffffffffffffffffffffffffffff1690602001909291908035600019169060200190929190505050612507565b005b348015610e5557600080fd5b50610e5e612643565b6040518082815260200191505060405180910390f35b348015610e8057600080fd5b50610e9f60048036038101908080359060200190929190505050612649565b604051808215151515815260200191505060405180910390f35b348015610ec557600080fd5b50610ee460048036038101908080359060200190929190505050612669565b6040518080602001828103825283818151815260200191508051906020019080838360005b83811015610f24578082015181840152602081019050610f09565b50505050905090810190601f168015610f515780820380516001836020036101000a031916815260200191505b509250505060405180910390f35b348015610f6b57600080fd5b50610f8a60048036038101908080359060200190929190505050612732565b005b348015610f9857600080fd5b50611039600480360381019080803590602001908201803590602001908080601f0160208091040260200160405190810160405280939291908181526020018383808284378201915050505050509192919290803590602001908201803590602001908080601f01602080910402602001604051908101604052809392919081815260200183838082843782019150505050505091929192905050506127a7565b6040518082815260200191505060405180910390f35b34801561105b57600080fd5b50611106600480360381019080803590602001908201803590602001908080601f0160208091040260200160405190810160405280939291908181526020018383808284378201915050505050509192919290803590602001908201803590602001908080601f016020809104026020016040519081016040528093929190818152602001838380828437820191505050505050919291929080359060200190929190505050612901565b005b34801561111457600080fd5b50611133600480360381019080803590602001909291905050506129e8565b6040518082815260200191505060405180910390f35b34801561115557600080fd5b50611200600480360381019080803590602001908201803590602001908080601f0160208091040260200160405190810160405280939291908181526020018383808284378201915050505050509192919290803590602001908201803590602001908080601f016020809104026020016040519081016040528093929190818152602001838380828437820191505050505050919291929080359060200190929190505050612acb565b005b34801561120e57600080fd5b50611263600480360381019080803573ffffffffffffffffffffffffffffffffffffffff169060200190929190803573ffffffffffffffffffffffffffffffffffffffff169060200190929190505050612b62565b604051808215151515815260200191505060405180910390f35b34801561128957600080fd5b50611354600480360381019080803573ffffffffffffffffffffffffffffffffffffffff16906020019092919080359060200190929190803590602001908201803590602001908080601f0160208091040260200160405190810160405280939291908181526020018383808284378201915050505050509192919290803590602001908201803590602001908080601f0160208091040260200160405190810160405280939291908181526020018383808284378201915050505050509192919290505050612bf6565b604051808215151515815260200191505060405180910390f35b34801561137a57600080fd5b50611383612eef565b6040518082815260200191505060405180910390f35b3480156113a557600080fd5b506113ae612ef5565b604051808273ffffffffffffffffffffffffffffffffffffffff1673ffffffffffffffffffffffffffffffffffffffff16815260200191505060405180910390f35b606060048054600181600116156101000203166002900480601f0160208091040260200160405190810160405280929190818152602001828054600181600116156101000203166002900480156114885780601f1061145d57610100808354040283529160200191611488565b820191906000526020600020905b81548152906001019060200180831161146b57829003601f168201915b5050505050905090565b60006001600083815260200190815260200160002060009054906101000a900473ffffffffffffffffffffffffffffffffffffffff169050919050565b60006114da82611b70565b90508073ffffffffffffffffffffffffffffffffffffffff168373ffffffffffffffffffffffffffffffffffffffff161415151561151757600080fd5b8073ffffffffffffffffffffffffffffffffffffffff163373ffffffffffffffffffffffffffffffffffffffff16148061155757506115568133612b62565b5b151561156257600080fd5b600073ffffffffffffffffffffffffffffffffffffffff1661158383611492565b73ffffffffffffffffffffffffffffffffffffffff161415806115d35750600073ffffffffffffffffffffffffffffffffffffffff168373ffffffffffffffffffffffffffffffffffffffff1614155b1561169057826001600084815260200190815260200160002060006101000a81548173ffffffffffffffffffffffffffffffffffffffff021916908373ffffffffffffffffffffffffffffffffffffffff1602179055508273ffffffffffffffffffffffffffffffffffffffff168173ffffffffffffffffffffffffffffffffffffffff167f8c5be1e5ebec7d5bd14f71427d1e84f3dd0314c0f7b2291e5b200ac8c7c3b925846040518082815260200191505060405180910390a35b505050565b600d60009054906101000a900473ffffffffffffffffffffffffffffffffffffffff1681565b60136020528060005260406000206000915090505481565b6000600880549050905090565b6000806000806000806000806000806116f98c8c6127a7565b945060008086815260200190815260200160002060009054906101000a900473ffffffffffffffffffffffffffffffffffffffff16935060008473ffffffffffffffffffffffffffffffffffffffff16141592506015600086815260200190815260200160002060009054906101000a900460ff169150611779856129e8565b905084848484849950995099509950995050505050509295509295909350565b60105481565b806117aa3382612f1b565b15156117b557600080fd5b600073ffffffffffffffffffffffffffffffffffffffff168473ffffffffffffffffffffffffffffffffffffffff16141515156117f157600080fd5b600073ffffffffffffffffffffffffffffffffffffffff168373ffffffffffffffffffffffffffffffffffffffff161415151561182d57600080fd5b6118378483612fb0565b6118418483613119565b61184b8383613331565b8273ffffffffffffffffffffffffffffffffffffffff168473ffffffffffffffffffffffffffffffffffffffff167fddf252ad1be2c89b69c2b068fc378daa952ba7f163c4a11628f55a4df523b3ef846040518082815260200191505060405180910390a350505050565b60006118c183611d16565b821015156118ce57600080fd5b600660008473ffffffffffffffffffffffffffffffffffffffff1673ffffffffffffffffffffffffffffffffffffffff1681526020019081526020016000208281548110151561191a57fe5b9060005260206000200154905092915050565b60126020528060005260406000206000915090505481565b806119503382612f1b565b151561195b57600080fd5b61197784848460206040519081016040528060008152506124c8565b50505050565b60008060008084815260200190815260200160002060009054906101000a900473ffffffffffffffffffffffffffffffffffffffff169050600073ffffffffffffffffffffffffffffffffffffffff168173ffffffffffffffffffffffffffffffffffffffff161415915050919050565b60006119f86116d3565b82101515611a0557600080fd5b600882815481101515611a1457fe5b90600052602060002001549050919050565b601760205281600052604060002081815481101515611a4157fe5b9060005260206000209060030201600091509150508060000154908060010160009054906101000a900473ffffffffffffffffffffffffffffffffffffffff16908060020154905083565b6000600b60009054906101000a900473ffffffffffffffffffffffffffffffffffffffff1673ffffffffffffffffffffffffffffffffffffffff163373ffffffffffffffffffffffffffffffffffffffff16141515611aea57600080fd5b3073ffffffffffffffffffffffffffffffffffffffff16319050600b60009054906101000a900473ffffffffffffffffffffffffffffffffffffffff1673ffffffffffffffffffffffffffffffffffffffff166108fc829081150290604051600060405180830381858888f19350505050158015611b6c573d6000803e3d6000fd5b5050565b60008060008084815260200190815260200160002060009054906101000a900473ffffffffffffffffffffffffffffffffffffffff169050600073ffffffffffffffffffffffffffffffffffffffff168173ffffffffffffffffffffffffffffffffffffffff1614151515611be457600080fd5b80915050919050565b606080600080600086935083519250600183039150600090505b82811015611cd4577f2e000000000000000000000000000000000000000000000000000000000000008482815181101515611c3e57fe5b9060200101517f010000000000000000000000000000000000000000000000000000000000000090047f0100000000000000000000000000000000000000000000000000000000000000027effffffffffffffffffffffffffffffffffffffffffffffffffffffffffffff19161415611cb5578091505b600186830101811415611cc757611cd4565b8080600101915050611c07565b8281101515611ce557869450611cf4565b611cf187600083613408565b94505b5050505092915050565b60146020528060005260406000206000915090505481565b60008073ffffffffffffffffffffffffffffffffffffffff168273ffffffffffffffffffffffffffffffffffffffff1614151515611d5357600080fd5b600260008373ffffffffffffffffffffffffffffffffffffffff1673ffffffffffffffffffffffffffffffffffffffff168152602001908152602001600020549050919050565b600b60009054906101000a900473ffffffffffffffffffffffffffffffffffffffff1673ffffffffffffffffffffffffffffffffffffffff163373ffffffffffffffffffffffffffffffffffffffff16141515611df657600080fd5b600081111515611e0557600080fd5b80600e8190555050565b60166020528060005260406000206000915090505481565b600b60009054906101000a900473ffffffffffffffffffffffffffffffffffffffff1681565b606060058054600181600116156101000203166002900480601f016020809104026020016040519081016040528092919081815260200182805460018160011615610100020316600290048015611ee55780601f10611eba57610100808354040283529160200191611ee5565b820191906000526020600020905b815481529060010190602001808311611ec857829003601f168201915b5050505050905090565b60115481565b3373ffffffffffffffffffffffffffffffffffffffff168273ffffffffffffffffffffffffffffffffffffffff1614151515611f3057600080fd5b80600360003373ffffffffffffffffffffffffffffffffffffffff1673ffffffffffffffffffffffffffffffffffffffff16815260200190815260200160002060008473ffffffffffffffffffffffffffffffffffffffff1673ffffffffffffffffffffffffffffffffffffffff16815260200190815260200160002060006101000a81548160ff0219169083151502179055508173ffffffffffffffffffffffffffffffffffffffff163373ffffffffffffffffffffffffffffffffffffffff167f17307eab39ab6107e8899845ad3d59bd9653f200f220920489ca2b5937696c3183604051808215151515815260200191505060405180910390a35050565b60008060008060008061204488886127a7565b945034935060008086815260200190815260200160002060009054906101000a900473ffffffffffffffffffffffffffffffffffffffff16925060008373ffffffffffffffffffffffffffffffffffffffff1614156120f357600f5484101515156120ae57600080fd5b601260008681526020019081526020016000205484101515156120d057600080fd5b6120db338686613517565b6120ea85898933878942613530565b600195506123c3565b600115156015600087815260200190815260200160002060009054906101000a900460ff16151514151561212657600080fd5b6000601460008781526020019081526020016000205411151561214857600080fd5b6014600086815260200190815260200160002054841015151561216a57600080fd5b61218061217985600e5461385f565b6064613897565b915061218c84836138ad565b905060006015600087815260200190815260200160002060006101000a81548160ff0219169083151502179055508273ffffffffffffffffffffffffffffffffffffffff166108fc829081150290604051600060405180830381858888f1935050505015156123795760016015600087815260200190815260200160002060006101000a81548160ff0219169083151502179055508273ffffffffffffffffffffffffffffffffffffffff163373ffffffffffffffffffffffffffffffffffffffff167fa55cfa3e9746b524793a7b3770d883a9547a84cd8e133210f934614d7e9d94fa878b8b8942604051808681526020018060200180602001858152602001848152602001838103835287818151815260200191508051906020019080838360005b838110156122cb5780820151818401526020810190506122b0565b50505050905090810190601f1680156122f85780820380516001836020036101000a031916815260200191505b50838103825286818151815260200191508051906020019080838360005b83811015612331578082015181840152602081019050612316565b50505050905090810190601f16801561235e5780820380516001836020036101000a031916815260200191505b5097505050505050505060405180910390a3600095506123c3565b6123838386613119565b61238d3386613331565b61239785856138c6565b8360146000878152602001908152602001600020819055506123be85898933878942613530565b600195505b505050505092915050565b60006123da83836127a7565b905060008082815260200190815260200160002060009054906101000a900473ffffffffffffffffffffffffffffffffffffffff1673ffffffffffffffffffffffffffffffffffffffff163373ffffffffffffffffffffffffffffffffffffffff1614151561244857600080fd5b60006015600083815260200190815260200160002060006101000a81548160ff0219169083151502179055506124aa601660008381526020019081526020016000205484843360146000878152602001908152602001600020546000426139b0565b60006014600083815260200190815260200160002081905550505050565b816124d33382612f1b565b15156124de57600080fd5b6124e985858561179f565b6124f585858585613ca2565b151561250057600080fd5b5050505050565b60607fd9e961b5e33e49ea23325ff569563cfc999d3188fd44b2a9bc263f247e7d5a5385858585604051808573ffffffffffffffffffffffffffffffffffffffff1673ffffffffffffffffffffffffffffffffffffffff1681526020018481526020018373ffffffffffffffffffffffffffffffffffffffff1673ffffffffffffffffffffffffffffffffffffffff168152602001826000191660001916815260200194505050505060405180910390a1600c60009054906101000a900473ffffffffffffffffffffffffffffffffffffffff1673ffffffffffffffffffffffffffffffffffffffff168373ffffffffffffffffffffffffffffffffffffffff1614151561261457600080fd5b61261d82613e90565b905061263b858561262d8461408c565b612636856140af565b612bf6565b505050505050565b600f5481565b60156020528060005260406000206000915054906101000a900460ff1681565b60606126748261197d565b151561267f57600080fd5b600a60008381526020019081526020016000208054600181600116156101000203166002900480601f0160208091040260200160405190810160405280929190818152602001828054600181600116156101000203166002900480156127265780601f106126fb57610100808354040283529160200191612726565b820191906000526020600020905b81548152906001019060200180831161270957829003601f168201915b50505050509050919050565b600b60009054906101000a900473ffffffffffffffffffffffffffffffffffffffff1673ffffffffffffffffffffffffffffffffffffffff163373ffffffffffffffffffffffffffffffffffffffff1614151561278e57600080fd5b60008111151561279d57600080fd5b80600f8190555050565b600082826040516020018083805190602001908083835b6020831015156127e357805182526020820191506020810190506020830392506127be565b6001836020036101000a038019825116818451168082178552505050505050905001807f2c0000000000000000000000000000000000000000000000000000000000000081525060010182805190602001908083835b60208310151561285e5780518252602082019150602081019050602083039250612839565b6001836020036101000a038019825116818451168082178552505050505050905001925050506040516020818303038152906040526040518082805190602001908083835b6020831015156128c857805182526020820191506020810190506020830392506128a3565b6001836020036101000a038019825116818451168082178552505050505050905001915050604051809103902060019004905092915050565b600061290d84846127a7565b905060008082815260200190815260200160002060009054906101000a900473ffffffffffffffffffffffffffffffffffffffff1673ffffffffffffffffffffffffffffffffffffffff163373ffffffffffffffffffffffffffffffffffffffff1614151561297b57600080fd5b60016015600083815260200190815260200160002060006101000a81548160ff0219169083151502179055508160146000838152602001908152602001600020819055506129e26016600083815260200190815260200160002054858533866001426139b0565b50505050565b600080600080600085815260200190815260200160002060009054906101000a900473ffffffffffffffffffffffffffffffffffffffff1673ffffffffffffffffffffffffffffffffffffffff161415612a6d57601260008481526020019081526020016000205490506000811415612a6557600f549150612ac5565b809150612ac5565b6015600084815260200190815260200160002060009054906101000a900460ff1615612aae5760146000848152602001908152602001600020549150612ac5565b601360008481526020019081526020016000205491505b50919050565b6000600b60009054906101000a900473ffffffffffffffffffffffffffffffffffffffff1673ffffffffffffffffffffffffffffffffffffffff163373ffffffffffffffffffffffffffffffffffffffff16141515612b2957600080fd5b600082111515612b3857600080fd5b612b4284846127a7565b905081601260008381526020019081526020016000208190555050505050565b6000600360008473ffffffffffffffffffffffffffffffffffffffff1673ffffffffffffffffffffffffffffffffffffffff16815260200190815260200160002060008373ffffffffffffffffffffffffffffffffffffffff1673ffffffffffffffffffffffffffffffffffffffff16815260200190815260200160002060009054906101000a900460ff16905092915050565b6000806000612c0585856127a7565b915060008083815260200190815260200160002060009054906101000a900473ffffffffffffffffffffffffffffffffffffffff16905060008173ffffffffffffffffffffffffffffffffffffffff161415612ee057600f548610151515612c6c57600080fd5b600f54600d60009054906101000a900473ffffffffffffffffffffffffffffffffffffffff1673ffffffffffffffffffffffffffffffffffffffff166370a08231896040518263ffffffff167c0100000000000000000000000000000000000000000000000000000000028152600401808273ffffffffffffffffffffffffffffffffffffffff1673ffffffffffffffffffffffffffffffffffffffff168152602001915050602060405180830381600087803b158015612d2c57600080fd5b505af1158015612d40573d6000803e3d6000fd5b505050506040513d6020811015612d5657600080fd5b810190808051906020019092919050505010151515612d7457600080fd5b600d60009054906101000a900473ffffffffffffffffffffffffffffffffffffffff1673ffffffffffffffffffffffffffffffffffffffff166323b872dd8830600f546040518463ffffffff167c0100000000000000000000000000000000000000000000000000000000028152600401808473ffffffffffffffffffffffffffffffffffffffff1673ffffffffffffffffffffffffffffffffffffffff1681526020018373ffffffffffffffffffffffffffffffffffffffff1673ffffffffffffffffffffffffffffffffffffffff1681526020018281526020019350505050602060405180830381600087803b158015612e6f57600080fd5b505af1158015612e83573d6000803e3d6000fd5b505050506040513d6020811015612e9957600080fd5b81019080805190602001909291905050501515612eb95760009250612ee5565b612ec68783600f54613517565b612ed78286868a85600f5442613530565b60019250612ee5565b600092505b5050949350505050565b600e5481565b600c60009054906101000a900473ffffffffffffffffffffffffffffffffffffffff1681565b600080612f2783611b70565b90508073ffffffffffffffffffffffffffffffffffffffff168473ffffffffffffffffffffffffffffffffffffffff161480612f9657508373ffffffffffffffffffffffffffffffffffffffff16612f7e84611492565b73ffffffffffffffffffffffffffffffffffffffff16145b80612fa75750612fa68185612b62565b5b91505092915050565b8173ffffffffffffffffffffffffffffffffffffffff16612fd082611b70565b73ffffffffffffffffffffffffffffffffffffffff16141515612ff257600080fd5b600073ffffffffffffffffffffffffffffffffffffffff166001600083815260200190815260200160002060009054906101000a900473ffffffffffffffffffffffffffffffffffffffff1673ffffffffffffffffffffffffffffffffffffffff161415156131155760006001600083815260200190815260200160002060006101000a81548173ffffffffffffffffffffffffffffffffffffffff021916908373ffffffffffffffffffffffffffffffffffffffff160217905550600073ffffffffffffffffffffffffffffffffffffffff168273ffffffffffffffffffffffffffffffffffffffff167f8c5be1e5ebec7d5bd14f71427d1e84f3dd0314c0f7b2291e5b200ac8c7c3b925836040518082815260200191505060405180910390a35b5050565b600080600061312885856140d5565b600760008581526020019081526020016000205492506131946001600660008873ffffffffffffffffffffffffffffffffffffffff1673ffffffffffffffffffffffffffffffffffffffff168152602001908152602001600020805490506138ad90919063ffffffff16565b9150600660008673ffffffffffffffffffffffffffffffffffffffff1673ffffffffffffffffffffffffffffffffffffffff168152602001908152602001600020828154811015156131e257fe5b9060005260206000200154905080600660008773ffffffffffffffffffffffffffffffffffffffff1673ffffffffffffffffffffffffffffffffffffffff1681526020019081526020016000208481548110151561323c57fe5b90600052602060002001819055506000600660008773ffffffffffffffffffffffffffffffffffffffff1673ffffffffffffffffffffffffffffffffffffffff1681526020019081526020016000208381548110151561329857fe5b9060005260206000200181905550600660008673ffffffffffffffffffffffffffffffffffffffff1673ffffffffffffffffffffffffffffffffffffffff1681526020019081526020016000208054809190600190036132f89190614570565b50600060076000868152602001908152602001600020819055508260076000838152602001908152602001600020819055505050505050565b600061333d8383614203565b600660008473ffffffffffffffffffffffffffffffffffffffff1673ffffffffffffffffffffffffffffffffffffffff168152602001908152602001600020805490509050600660008473ffffffffffffffffffffffffffffffffffffffff1673ffffffffffffffffffffffffffffffffffffffff168152602001908152602001600020829080600181540180825580915050906001820390600052602060002001600090919290919091505550806007600084815260200190815260200160002081905550505050565b60608060606000869250600085141561342057825194505b8585036040519080825280601f01601f1916602001820160405280156134555781602001602082028038833980820191505090505b5091508590505b8481101561350a57828181518110151561347257fe5b9060200101517f010000000000000000000000000000000000000000000000000000000000000090047f010000000000000000000000000000000000000000000000000000000000000002828783038151811015156134cd57fe5b9060200101907effffffffffffffffffffffffffffffffffffffffffffffffffffffffffffff1916908160001a905350808060010191505061345c565b8193505050509392505050565b613521838361435b565b61352b82826138c6565b505050565b60106000815480929190600101919050555060105460166000898152602001908152602001600020819055508273ffffffffffffffffffffffffffffffffffffffff168473ffffffffffffffffffffffffffffffffffffffff167f8e70ff832b6da3e07cec0652309e33a0f14681cdd10e58614a58610009c29ac560105489898787604051808681526020018060200180602001858152602001848152602001838103835287818151815260200191508051906020019080838360005b838110156136085780820151818401526020810190506135ed565b50505050905090810190601f1680156136355780820380516001836020036101000a031916815260200191505b50838103825286818151815260200191508051906020019080838360005b8381101561366e578082015181840152602081019050613653565b50505050905090810190601f16801561369b5780820380516001836020036101000a031916815260200191505b5097505050505050505060405180910390a36136cb6136bb876001611bed565b6136c6876001611bed565b6127a7565b7f74e17343eb39bf0291462c1254c3997f63ce2db783e13c9ef1b444748febb1e56010548888888888886040518088815260200180602001806020018773ffffffffffffffffffffffffffffffffffffffff1673ffffffffffffffffffffffffffffffffffffffff1681526020018673ffffffffffffffffffffffffffffffffffffffff1673ffffffffffffffffffffffffffffffffffffffff168152602001858152602001848152602001838103835289818151815260200191508051906020019080838360005b838110156137af578082015181840152602081019050613794565b50505050905090810190601f1680156137dc5780820380516001836020036101000a031916815260200191505b50838103825288818151815260200191508051906020019080838360005b838110156138155780820151818401526020810190506137fa565b50505050905090810190601f1680156138425780820380516001836020036101000a031916815260200191505b50995050505050505050505060405180910390a250505050505050565b6000808314156138725760009050613891565b818302905081838281151561388357fe5b0414151561388d57fe5b8090505b92915050565b600081838115156138a457fe5b04905092915050565b60008282111515156138bb57fe5b818303905092915050565b806013600084815260200190815260200160002081905550601760008381526020019081526020016000206060604051908101604052808481526020013373ffffffffffffffffffffffffffffffffffffffff16815260200183815250908060018154018082558091505090600182039060005260206000209060030201600090919290919091506000820151816000015560208201518160010160006101000a81548173ffffffffffffffffffffffffffffffffffffffff021916908373ffffffffffffffffffffffffffffffffffffffff160217905550604082015181600201555050505050565b6011600081548092919060010191905055508373ffffffffffffffffffffffffffffffffffffffff167f05babdc65b592a0dc2eb1e6118b969c698477d136b29df954d6dea26ccb706bc60115489898988888860405180888152602001878152602001806020018060200186815260200185151515158152602001848152602001838103835288818151815260200191508051906020019080838360005b83811015613a69578082015181840152602081019050613a4e565b50505050905090810190601f168015613a965780820380516001836020036101000a031916815260200191505b50838103825287818151815260200191508051906020019080838360005b83811015613acf578082015181840152602081019050613ab4565b50505050905090810190601f168015613afc5780820380516001836020036101000a031916815260200191505b50995050505050505050505060405180910390a2613b2e613b1e876001611bed565b613b29876001611bed565b6127a7565b7fc06e63cf101e85b8f2f20463b1b6f3658a56acb56a9256a2907a9ac00ec37457601154898989898989896040518089815260200188815260200180602001806020018773ffffffffffffffffffffffffffffffffffffffff1673ffffffffffffffffffffffffffffffffffffffff16815260200186815260200185151515158152602001848152602001838103835289818151815260200191508051906020019080838360005b83811015613bf1578082015181840152602081019050613bd6565b50505050905090810190601f168015613c1e5780820380516001836020036101000a031916815260200191505b50838103825288818151815260200191508051906020019080838360005b83811015613c57578082015181840152602081019050613c3c565b50505050905090810190601f168015613c845780820380516001836020036101000a031916815260200191505b509a505050505050505050505060405180910390a250505050505050565b600080613cc48573ffffffffffffffffffffffffffffffffffffffff166143b2565b1515613cd35760019150613e87565b8473ffffffffffffffffffffffffffffffffffffffff1663f0b9e5ba8786866040518463ffffffff167c0100000000000000000000000000000000000000000000000000000000028152600401808473ffffffffffffffffffffffffffffffffffffffff1673ffffffffffffffffffffffffffffffffffffffff16815260200183815260200180602001828103825283818151815260200191508051906020019080838360005b83811015613d95578082015181840152602081019050613d7a565b50505050905090810190601f168015613dc25780820380516001836020036101000a031916815260200191505b50945050505050602060405180830381600087803b158015613de357600080fd5b505af1158015613df7573d6000803e3d6000fd5b505050506040513d6020811015613e0d57600080fd5b8101908080519060200190929190505050905063f0b9e5ba7c0100000000000000000000000000000000000000000000000000000000027bffffffffffffffffffffffffffffffffffffffffffffffffffffffff1916817bffffffffffffffffffffffffffffffffffffffffffffffffffffffff19161491505b50949350505050565b6060806000806000606060206040519080825280601f01601f191660200182016040528015613ece5781602001602082028038833980820191505090505b50945060009350600092505b6020831015613f98578260080260020a876001900402600102915060007f010000000000000000000000000000000000000000000000000000000000000002827effffffffffffffffffffffffffffffffffffffffffffffffffffffffffffff1916141515613f8b57818585815181101515613f5257fe5b9060200101907effffffffffffffffffffffffffffffffffffffffffffffffffffffffffffff1916908160001a90535083806001019450505b8280600101935050613eda565b836040519080825280601f01601f191660200182016040528015613fcb5781602001602082028038833980820191505090505b509050600092505b8383101561407f578483815181101515613fe957fe5b9060200101517f010000000000000000000000000000000000000000000000000000000000000090047f010000000000000000000000000000000000000000000000000000000000000002818481518110151561404257fe5b9060200101907effffffffffffffffffffffffffffffffffffffffffffffffffffffffffffff1916908160001a9053508280600101935050613fd3565b8095505050505050919050565b60606000614099836143c5565b90506140a783600083613408565b915050919050565b606060006140bc836143c5565b90506140cd83600183016000613408565b915050919050565b8173ffffffffffffffffffffffffffffffffffffffff166140f582611b70565b73ffffffffffffffffffffffffffffffffffffffff1614151561411757600080fd5b61416a6001600260008573ffffffffffffffffffffffffffffffffffffffff1673ffffffffffffffffffffffffffffffffffffffff168152602001908152602001600020546138ad90919063ffffffff16565b600260008473ffffffffffffffffffffffffffffffffffffffff1673ffffffffffffffffffffffffffffffffffffffff16815260200190815260200160002081905550600080600083815260200190815260200160002060006101000a81548173ffffffffffffffffffffffffffffffffffffffff021916908373ffffffffffffffffffffffffffffffffffffffff1602179055505050565b600073ffffffffffffffffffffffffffffffffffffffff1660008083815260200190815260200160002060009054906101000a900473ffffffffffffffffffffffffffffffffffffffff1673ffffffffffffffffffffffffffffffffffffffff1614151561427057600080fd5b8160008083815260200190815260200160002060006101000a81548173ffffffffffffffffffffffffffffffffffffffff021916908373ffffffffffffffffffffffffffffffffffffffff1602179055506143146001600260008573ffffffffffffffffffffffffffffffffffffffff1673ffffffffffffffffffffffffffffffffffffffff168152602001908152602001600020546144a490919063ffffffff16565b600260008473ffffffffffffffffffffffffffffffffffffffff1673ffffffffffffffffffffffffffffffffffffffff168152602001908152602001600020819055505050565b61436582826144c0565b600880549050600960008381526020019081526020016000208190555060088190806001815401808255809150509060018203906000526020600020016000909192909190915055505050565b600080823b905060008111915050919050565b6000606060008084925082519150600090505b81811015614497577f2c00000000000000000000000000000000000000000000000000000000000000838281518110151561440f57fe5b9060200101517f010000000000000000000000000000000000000000000000000000000000000090047f0100000000000000000000000000000000000000000000000000000000000000027effffffffffffffffffffffffffffffffffffffffffffffffffffffffffffff1916141561448a5780935061449c565b80806001019150506143d8565b600093505b505050919050565b600081830190508281101515156144b757fe5b80905092915050565b600073ffffffffffffffffffffffffffffffffffffffff168273ffffffffffffffffffffffffffffffffffffffff16141515156144fc57600080fd5b6145068282613331565b8173ffffffffffffffffffffffffffffffffffffffff16600073ffffffffffffffffffffffffffffffffffffffff167fddf252ad1be2c89b69c2b068fc378daa952ba7f163c4a11628f55a4df523b3ef836040518082815260200191505060405180910390a35050565b81548183558181111561459757818360005260206000209182019101614596919061459c565b5b505050565b6145be91905b808211156145ba5760008160009055506001016145a2565b5090565b905600a165627a7a723058208d545ad8924d215390f44a69626d07a97406ee20001391548530ea1bb85c52730029",
  "source": "pragma solidity ^0.4.20;\n\nimport \"zeppelin-solidity/contracts/token/ERC721/ERC721Token.sol\";\n\n\ncontract ERC20Interface {\n  function transferFrom(address from, address to, uint tokens) public returns (bool success);\n\tfunction balanceOf(address tokenOwner) public constant returns (uint balance);\n}\n\n\ncontract SuperWorldToken is ERC721Token {\n\n\taddress public owner;\n\taddress public coinAddress;\n\tERC20Interface public superWorldCoin;\n\n\t// percentage cut\n\tuint public percentageCut;\n\tuint public basePrice;\n\tuint public buyId = 0;\n\tuint public listId = 0;\n\n\t// tokenId => base price in wei\n\tmapping(uint => uint) public basePrices;\n\n\t// tokenId => bought price in wei\n\tmapping(uint => uint) public boughtPrices;\n\n\t// tokenId => sell price in wei\n\tmapping(uint => uint) public sellPrices;\n\n\t// tokenId => is selling\n\tmapping(uint => bool) public isSellings;\n\n\t// tokenId => buyId\n\tmapping(uint => uint) public buyIds;\n\n\t// token history\n\tstruct TokenHistory {\n\t\tuint tokenId;\n\t\taddress owner;\n\t\tuint price;\n\t}\n\n\t// tokenId => token history array\n\tmapping(uint => TokenHistory[]) public tokenHistories;\n\n\t// events\n\t// TODO: add timestamp (block or UTC)\n\tevent EventBuyToken(uint buyId, string lon, string lat, address indexed buyer, address indexed seller, uint price, uint timestamp);\n\tevent EventBuyTokenFail(uint buyId, string lon, string lat, address indexed buyer, address indexed seller, uint price, uint timestamp);\n\tevent EventBuyTokenId1(uint buyId, uint indexed tokenId1, string lon, string lat, address buyer, address seller, uint price, uint timestamp);\n\tevent EventListToken(uint listId, uint buyId, string lon, string lat, address indexed seller, uint price, bool isListed, uint timestamp);\n\tevent EventListTokenId1(uint listId, uint buyId, uint indexed tokenId1, string lon, string lat, address seller, uint price, bool isListed, uint timestamp);\n\tevent EventReceiveApproval(address buyer, uint coins, address _coinAddress, bytes32 _data);\n\n\n\tconstructor(address _coinAddress, uint _percentageCut, uint _basePrice)\n\tpublic\n\tERC721Token(\"SuperWorld\", \"SUPERWORLD\") {\n\t\towner = msg.sender;\n\t\tcoinAddress = _coinAddress;\n\t\tsuperWorldCoin = ERC20Interface(coinAddress);\n\t\tpercentageCut = _percentageCut;\n\t\tbasePrice = _basePrice;\n\t\tbuyId = 0;\n\t\tlistId = 0;\n\t}\n\n\n\tfunction setBasePrice(uint _basePrice) public {\n\t\trequire(msg.sender == owner);\n\t\trequire(_basePrice > 0);\n\t\tbasePrice = _basePrice;\n\t}\n\n\n\tfunction setBasePrice(string lon, string lat, uint _basePrice) public {\n\t\trequire(msg.sender == owner);\n\t\trequire(_basePrice > 0);\n\t\tuint tokenId = getTokenId(lon, lat);\n\t\tbasePrices[tokenId] = _basePrice;\n\t}\n\n\n\tfunction setPercentageCut(uint _percentageCut) public {\n\t\trequire(msg.sender == owner);\n\t\trequire(_percentageCut > 0);\n\t\tpercentageCut = _percentageCut;\n\t}\n\n\n\tfunction createToken(address buyer, uint tokenId, uint256 price) private {\n\t\t_mint(buyer, tokenId);\n\t\trecordTransaction(tokenId, price);\n\t}\n\n\n\tfunction recordTransaction(uint tokenId, uint256 price) private {\n\t\tboughtPrices[tokenId] = price;\n\t\ttokenHistories[tokenId].push(TokenHistory(tokenId, msg.sender, price));\n\t}\n\n\n\tfunction getTokenId(string lon, string lat) pure public returns (uint) {\n\t\treturn uint(keccak256(abi.encodePacked(lon, \",\", lat)));\n\t}\n\n\n\t// getInfo: tokenId, tokenOwner, isOwned, isSelling, price\n\tfunction getInfo(string lon, string lat) view public returns (uint, address, bool, bool, uint) {\n\t\tuint tokenId = getTokenId(lon, lat);\n\t\taddress _tokenOwner = tokenOwner[tokenId];\n\t\tbool isOwned = _tokenOwner != 0x0;\n\t\tbool isSelling = isSellings[tokenId];\n\t\tuint price = getPrice(tokenId);\n\t\treturn (tokenId, _tokenOwner, isOwned, isSelling, price);\n\t}\n\n\n\tfunction receiveApproval(address buyer, uint coins, address _coinAddress, bytes32 _data) public {\n\t\temit EventReceiveApproval(buyer, coins, _coinAddress, _data);\n\t\trequire(_coinAddress == coinAddress);\n\t\tstring memory dataString = bytes32ToString(_data);\n\t\tbuyTokenWithCoins(buyer, coins, getLon(dataString), getLat(dataString));\n\t}\n\n\n\tfunction buyTokenWithCoins(address buyer, uint coins, string lon, string lat) public returns (bool) {\n\t\tuint tokenId = getTokenId(lon, lat);\n\t\taddress seller = tokenOwner[tokenId];\n\n\t\t// unique token not bought yet\n\t\tif (seller == 0x0) {\n\t\t\trequire(coins >= basePrice);\n\t\t\trequire(superWorldCoin.balanceOf(buyer) >= basePrice);\n\t\t\tif (!superWorldCoin.transferFrom(buyer, address(this), basePrice)) {\n\t\t\t\treturn false;\n\t\t\t}\n\t\t\tcreateToken(buyer, tokenId, basePrice);\n\t\t\temitBuyTokenEvents(tokenId, lon, lat, buyer, seller, basePrice, now);\n\t\t\treturn true;\n\t\t}\n\n\t\treturn false;\n\t}\n\n\n\t// buy token; returns isSuccess\n\tfunction buyToken(string lon, string lat) payable public returns (bool) {\n\t\tuint tokenId = getTokenId(lon, lat);\n\t\tuint offerPrice = msg.value;\n\t\taddress seller = tokenOwner[tokenId];\n\n\t\t// unique token not bought yet\n\t\tif (seller == 0x0) {\n\t\t\trequire(offerPrice >= basePrice);\n\t\t\trequire(offerPrice >= basePrices[tokenId]);\n\t\t\tcreateToken(msg.sender, tokenId, offerPrice);\n\t\t\temitBuyTokenEvents(tokenId, lon, lat, msg.sender, seller, offerPrice, now);\n\t\t\treturn true;\n\t\t}\n\n\t\t// check selling\n\t\trequire(isSellings[tokenId] == true);\n\t\t// check sell price > 0\n\t\trequire(sellPrices[tokenId] > 0);\n\t\t// check offer price >= sell price\n\t\trequire(offerPrice >= sellPrices[tokenId]);\n\n\t\t// send percentage of cut to contract owner\n\t\tuint fee = SafeMath.div(SafeMath.mul(offerPrice, percentageCut), 100);\n\t\tuint priceAfterFee = SafeMath.sub(offerPrice, fee);\n\n\t\t// mark not selling\n\t\tisSellings[tokenId] = false;\n\n\t\t// send payment\n\t\tif (!seller.send(priceAfterFee)) {\n\t\t\t\t// if failed to send, mark selling\n\t\t\t\tisSellings[tokenId] = true;\n\t\t\t\temit EventBuyTokenFail(tokenId, lon, lat, msg.sender, seller, offerPrice, now);\n\t\t\t\treturn false;\n\t\t}\n\n\t\t// transfer token\n\t\tremoveTokenFrom(seller, tokenId);\n\t\taddTokenTo(msg.sender, tokenId);\n\t\trecordTransaction(tokenId, offerPrice);\n\t\tsellPrices[tokenId] = offerPrice;\n\t\temitBuyTokenEvents(tokenId, lon, lat, msg.sender, seller, offerPrice, now);\n\t\treturn true;\n\t}\n\n\n\tfunction emitBuyTokenEvents(uint tokenId, string lon, string lat, address buyer, address seller, uint offerPrice, uint timestamp) private {\n\t\tbuyId++;\n\t\tbuyIds[tokenId] = buyId;\n\t\temit EventBuyToken(buyId, lon, lat, buyer, seller, offerPrice, timestamp);\n\t\temit EventBuyTokenId1(buyId, getTokenId(truncateDecimals(lon, 1), truncateDecimals(lat, 1)), lon, lat, buyer, seller, offerPrice, timestamp);\n\t}\n\n\t// list / delist\n\n\tfunction listToken(string lon, string lat, uint sellPrice) public {\n\t\tuint tokenId = getTokenId(lon, lat);\n\t\trequire(msg.sender == tokenOwner[tokenId]);\n\t\tisSellings[tokenId] = true;\n\t\tsellPrices[tokenId] = sellPrice;\n\t\temitListTokenEvents(buyIds[tokenId], lon, lat, msg.sender, sellPrice, true, now);\n\t}\n\n\n\tfunction delistToken(string lon, string lat) public {\n\t\tuint tokenId = getTokenId(lon, lat);\n\t\trequire(msg.sender == tokenOwner[tokenId]);\n\t\tisSellings[tokenId] = false;\n\t\temitListTokenEvents(buyIds[tokenId], lon, lat, msg.sender, sellPrices[tokenId], false, now);\n\t\tsellPrices[tokenId] = 0;\n\t}\n\n\n\tfunction emitListTokenEvents(uint _buyId, string lon, string lat, address seller, uint sellPrice, bool isListed, uint timestamp) private {\n\t\tlistId++;\n\t\temit EventListToken(listId, _buyId, lon, lat, seller, sellPrice, isListed, timestamp);\n\t\temit EventListTokenId1(listId, _buyId, getTokenId(truncateDecimals(lon, 1), truncateDecimals(lat, 1)), lon, lat, seller, sellPrice, isListed, timestamp);\n\t}\n\n\n\tfunction getPrice(uint tokenId) view public returns (uint) {\n\t\tif (tokenOwner[tokenId] == 0x0) {\n\t\t\t// not owned\n\t\t\tuint _basePrice = basePrices[tokenId];\n\t\t\tif (_basePrice == 0) {\n\t\t\t\treturn basePrice;\n\t\t\t}\n\t\t\telse {\n\t\t\t\treturn _basePrice;\n\t\t\t}\n\t\t}\n\t\telse {\n\t\t\t// owned\n\t\t\tif (isSellings[tokenId]) {\n\t\t\t\treturn sellPrices[tokenId];\n\t\t\t}\n\t\t\telse {\n\t\t\t\treturn boughtPrices[tokenId];\n\t\t\t}\n\t\t}\n\t}\n\n\n\tfunction truncateDecimals(string str, uint decimal) pure public returns (string) {\n  \tbytes memory strBytes = bytes(str);\n\t\tuint length = strBytes.length;\n\t\tuint endIndex = length - 1;\n  \tfor (uint i = 0; i < length; i++) {\n      if (strBytes[i] == \".\") {\n\t\t\t\tendIndex = i;\n\t\t\t}\n\t\t\tif (i == endIndex + decimal + 1) {\n\t\t\t\tbreak;\n\t\t\t}\n    }\n\t\tif (i >= length) {\n\t\t\treturn str;\n\t\t}\n\t\treturn substring(str, 0, i);\n\t}\n\n\n\tfunction substring(string str, uint startIndex, uint endIndex) pure private returns (string) {\n  \tbytes memory strBytes = bytes(str);\n\t\tif (endIndex == 0) {\n\t\t\tendIndex = strBytes.length;\n\t\t}\n  \tbytes memory result = new bytes(endIndex - startIndex);\n  \tfor (uint i = startIndex; i < endIndex; i++) {\n      result[i - startIndex] = strBytes[i];\n    }\n  \treturn string(result);\n\t}\n\n\n\tfunction indexOfComma(string str) pure private returns (uint) {\n\t\tbytes memory strBytes = bytes(str);\n\t\tuint length = strBytes.length;\n\t\tfor (uint i = 0; i < length; i++) {\n\t\t\tif (strBytes[i] == \",\") {\n\t\t\t\treturn i;\n\t\t\t}\n\t\t}\n\t\treturn 0;\n\t}\n\n\n\tfunction getLon(string str) pure private returns (string) {\n\t\tuint index = indexOfComma(str);\n\t\treturn substring(str, 0, index);\n\t}\n\n\n\tfunction getLat(string str) pure private returns (string) {\n\t\tuint index = indexOfComma(str);\n\t\treturn substring(str, index + 1, 0);\n\t}\n\n\n\tfunction bytesToString(bytes _dataBytes) pure private returns (string) {\n\t\tif (_dataBytes.length == 0) {\n\t\t\treturn \"\";\n\t\t}\n\n\t\tbytes32 dataBytes32;\n\n\t\tassembly {\n\t\t\tdataBytes32 := mload(add(_dataBytes, 32))\n\t\t}\n\t\treturn bytes32ToString(dataBytes32);\n\t}\n\n\n\tfunction bytes32ToString(bytes32 _dataBytes32) pure private returns (string) {\n\t\tbytes memory bytesString = new bytes(32);\n\t\tuint charCount = 0;\n\t\tfor (uint j = 0; j < 32; j++) {\n\t\t\t\tbyte char = byte(bytes32(uint(_dataBytes32) * 2 ** (8 * j)));\n\t\t\t\tif (char != 0) {\n\t\t\t\t\t\tbytesString[charCount] = char;\n\t\t\t\t\t\tcharCount++;\n\t\t\t\t}\n\t\t}\n\t\tbytes memory bytesStringTrimmed = new bytes(charCount);\n\t\tfor (j = 0; j < charCount; j++) {\n\t\t\t\tbytesStringTrimmed[j] = bytesString[j];\n\t\t}\n\t\treturn string(bytesStringTrimmed);\n\t}\n\t\n\n\tfunction withdrawBalance() public  {\n\t\trequire(msg.sender == owner);\n\t\tuint balance = address(this).balance;\n\t\taddress(owner).transfer(balance);\n\t}\n}\n",
  "sourcePath": "/Users/maxwoon/Documents/Dev/dapps/superWorld/contracts/SuperWorldToken.sol",
  "compiler": {
    "name": "solc",
    "version": "0.4.24+commit.e67f0147.Emscripten.clang"
  },
  "schemaVersion": "2.0.0",
  "updatedAt": "2018-07-21T13:04:58.118Z"
}