{
  "contractName": "SuperWorldCoinCrowdsale",
  "abi": [
    {
      "constant": true,
      "inputs": [],
      "name": "rate",
      "outputs": [
        {
          "name": "",
          "type": "uint256"
        }
      ],
      "payable": false,
      "stateMutability": "view",
      "type": "function"
    },
    {
      "constant": true,
      "inputs": [],
      "name": "coinUnitsAvailable",
      "outputs": [
        {
          "name": "",
          "type": "uint256"
        }
      ],
      "payable": false,
      "stateMutability": "view",
      "type": "function"
    },
    {
      "constant": true,
      "inputs": [],
      "name": "weiRaised",
      "outputs": [
        {
          "name": "",
          "type": "uint256"
        }
      ],
      "payable": false,
      "stateMutability": "view",
      "type": "function"
    },
    {
      "constant": true,
      "inputs": [],
      "name": "wallet",
      "outputs": [
        {
          "name": "",
          "type": "address"
        }
      ],
      "payable": false,
      "stateMutability": "view",
      "type": "function"
    },
    {
      "constant": true,
      "inputs": [],
      "name": "coinUnitsSold",
      "outputs": [
        {
          "name": "",
          "type": "uint256"
        }
      ],
      "payable": false,
      "stateMutability": "view",
      "type": "function"
    },
    {
      "constant": false,
      "inputs": [
        {
          "name": "_beneficiary",
          "type": "address"
        }
      ],
      "name": "buyTokens",
      "outputs": [],
      "payable": true,
      "stateMutability": "payable",
      "type": "function"
    },
    {
      "constant": true,
      "inputs": [],
      "name": "token",
      "outputs": [
        {
          "name": "",
          "type": "address"
        }
      ],
      "payable": false,
      "stateMutability": "view",
      "type": "function"
    },
    {
      "inputs": [
        {
          "name": "_openingTime",
          "type": "uint256"
        },
        {
          "name": "_closingTime",
          "type": "uint256"
        },
        {
          "name": "_rate",
          "type": "uint256"
        },
        {
          "name": "_wallet",
          "type": "address"
        },
        {
          "name": "_token",
          "type": "address"
        },
        {
          "name": "_coinUnitsAvailable",
          "type": "uint256"
        }
      ],
      "payable": false,
      "stateMutability": "nonpayable",
      "type": "constructor"
    },
    {
      "payable": true,
      "stateMutability": "payable",
      "type": "fallback"
    },
    {
      "anonymous": false,
      "inputs": [
        {
          "indexed": false,
          "name": "buyer",
          "type": "address"
        },
        {
          "indexed": false,
          "name": "seller",
          "type": "address"
        },
        {
          "indexed": false,
          "name": "coins",
          "type": "uint256"
        },
        {
          "indexed": false,
          "name": "weiAmount",
          "type": "uint256"
        }
      ],
      "name": "EventBoughtCoins",
      "type": "event"
    },
    {
      "anonymous": false,
      "inputs": [
        {
          "indexed": true,
          "name": "purchaser",
          "type": "address"
        },
        {
          "indexed": true,
          "name": "beneficiary",
          "type": "address"
        },
        {
          "indexed": false,
          "name": "value",
          "type": "uint256"
        },
        {
          "indexed": false,
          "name": "amount",
          "type": "uint256"
        }
      ],
      "name": "TokenPurchase",
      "type": "event"
    },
    {
      "constant": true,
      "inputs": [],
      "name": "coinPriceInWei",
      "outputs": [
        {
          "name": "",
          "type": "uint256"
        }
      ],
      "payable": false,
      "stateMutability": "view",
      "type": "function"
    },
    {
      "constant": false,
      "inputs": [
        {
          "name": "coinUnits",
          "type": "uint256"
        }
      ],
      "name": "buyCoins",
      "outputs": [],
      "payable": true,
      "stateMutability": "payable",
      "type": "function"
    }
  ],
  "bytecode": "0x608060405234801561001057600080fd5b5060405160c0806108fa83398101806040528101908080519060200190929190805190602001909291908051906020019092919080519060200190929190805190602001909291908051906020019092919050505083838360008311151561007757600080fd5b600073ffffffffffffffffffffffffffffffffffffffff168273ffffffffffffffffffffffffffffffffffffffff16141515156100b357600080fd5b600073ffffffffffffffffffffffffffffffffffffffff168173ffffffffffffffffffffffffffffffffffffffff16141515156100ef57600080fd5b8260028190555081600160006101000a81548173ffffffffffffffffffffffffffffffffffffffff021916908373ffffffffffffffffffffffffffffffffffffffff160217905550806000806101000a81548173ffffffffffffffffffffffffffffffffffffffff021916908373ffffffffffffffffffffffffffffffffffffffff16021790555050505060006004819055508060058190555050505050505061075c8061019e6000396000f300608060405260043610610099576000357c0100000000000000000000000000000000000000000000000000000000900463ffffffff1680632c4e722e146100a45780632d247cc6146100cf57806333cb31a1146100fa5780634042b66f14610125578063521eb27314610150578063e50568a7146101a7578063ec8ac4d8146101d2578063fc0c546a14610208578063fe4681961461025f575b6100a23361027f565b005b3480156100b057600080fd5b506100b961034d565b6040518082815260200191505060405180910390f35b3480156100db57600080fd5b506100e4610353565b6040518082815260200191505060405180910390f35b34801561010657600080fd5b5061010f61036e565b6040518082815260200191505060405180910390f35b34801561013157600080fd5b5061013a610374565b6040518082815260200191505060405180910390f35b34801561015c57600080fd5b5061016561037a565b604051808273ffffffffffffffffffffffffffffffffffffffff1673ffffffffffffffffffffffffffffffffffffffff16815260200191505060405180910390f35b3480156101b357600080fd5b506101bc6103a0565b6040518082815260200191505060405180910390f35b610206600480360381019080803573ffffffffffffffffffffffffffffffffffffffff16906020019092919050505061027f565b005b34801561021457600080fd5b5061021d6103a6565b604051808273ffffffffffffffffffffffffffffffffffffffff1673ffffffffffffffffffffffffffffffffffffffff16815260200191505060405180910390f35b61027d600480360381019080803590602001909291905050506103cb565b005b60008034915061028f83836104df565b6102988261052f565b90506102af8260035461054d90919063ffffffff16565b6003819055506102bf8382610569565b8273ffffffffffffffffffffffffffffffffffffffff163373ffffffffffffffffffffffffffffffffffffffff167f623b3804fa71d67900d064613da8f94b9617215ee90799290593e1745087ad188484604051808381526020018281526020019250505060405180910390a36103368383610577565b61033e61057b565b61034883836105e6565b505050565b60025481565b6000610369600254670de0b6b3a76400006105ea565b905090565b60055481565b60035481565b600160009054906101000a900473ffffffffffffffffffffffffffffffffffffffff1681565b60045481565b6000809054906101000a900473ffffffffffffffffffffffffffffffffffffffff1681565b6000811115156103da57600080fd5b60006005541115156103eb57600080fd5b6103f43361027f565b80600460008282540192505081905550806005600082825403925050819055507fc6efbf22dba4467908b329ca4f3de819c866da3331f152c607823519abf56fbf336000809054906101000a900473ffffffffffffffffffffffffffffffffffffffff168334604051808573ffffffffffffffffffffffffffffffffffffffff1673ffffffffffffffffffffffffffffffffffffffff1681526020018473ffffffffffffffffffffffffffffffffffffffff1673ffffffffffffffffffffffffffffffffffffffff16815260200183815260200182815260200194505050505060405180910390a150565b600073ffffffffffffffffffffffffffffffffffffffff168273ffffffffffffffffffffffffffffffffffffffff161415151561051b57600080fd5b6000811415151561052b57600080fd5b5050565b6000610546600254836105ea90919063ffffffff16565b9050919050565b6000818301905082811015151561056057fe5b80905092915050565b6105738282610622565b5050565b5050565b600160009054906101000a900473ffffffffffffffffffffffffffffffffffffffff1673ffffffffffffffffffffffffffffffffffffffff166108fc349081150290604051600060405180830381858888f193505050501580156105e3573d6000803e3d6000fd5b50565b5050565b6000808314156105fd576000905061061c565b818302905081838281151561060e57fe5b0414151561061857fe5b8090505b92915050565b6000809054906101000a900473ffffffffffffffffffffffffffffffffffffffff1673ffffffffffffffffffffffffffffffffffffffff166340c10f1983836040518363ffffffff167c0100000000000000000000000000000000000000000000000000000000028152600401808373ffffffffffffffffffffffffffffffffffffffff1673ffffffffffffffffffffffffffffffffffffffff16815260200182815260200192505050602060405180830381600087803b1580156106e657600080fd5b505af11580156106fa573d6000803e3d6000fd5b505050506040513d602081101561071057600080fd5b8101908080519060200190929190505050151561072c57600080fd5b50505600a165627a7a72305820291172fab37e34b6c870222df95c54b37ee908becd172aaa532039886ebc28cc0029",
  "source": "pragma solidity ^0.4.20;\n\nimport \"./SuperWorldCoin.sol\";\nimport \"zeppelin-solidity/contracts/crowdsale/emission/MintedCrowdsale.sol\";\n//import \"zeppelin-solidity/contracts/crowdsale/validation/TimedCrowdsale.sol\";\n\n//contract SuperWorldCoinCrowdsale is TimedCrowdsale {\ncontract SuperWorldCoinCrowdsale is MintedCrowdsale {\n\n  uint public coinUnitsSold;\n  uint public coinUnitsAvailable;\n\n  event EventBoughtCoins(address buyer, address seller, uint coins, uint weiAmount);\n\n\tconstructor(\n\t\tuint256 _openingTime,\n\t\tuint256 _closingTime,\n\t\tuint256 _rate,\n\t\taddress _wallet,\n\t\tMintableToken _token,\n    uint _coinUnitsAvailable\n\t)\n\tpublic\n\tCrowdsale(_rate, _wallet, _token) {\n\t//TimedCrowdsale(_openingTime, _closingTime) {\n    coinUnitsSold = 0;\n    coinUnitsAvailable = _coinUnitsAvailable;\n\t}\n\n\n\tfunction coinPriceInWei() public view returns (uint) {\n    return SafeMath.mul(rate, 1 ether);\n\t}\n\n\n  function buyCoins(uint coinUnits) public payable {\n    require(coinUnits > 0);\n    require(coinUnitsAvailable > 0);\n    super.buyTokens(msg.sender);\n    coinUnitsSold += coinUnits;\n    coinUnitsAvailable -= coinUnits;\n    emit EventBoughtCoins(msg.sender, token, coinUnits, msg.value);\n  }\n}\n",
  "sourcePath": "/Users/maxwoon/Documents/Dev/dapps/superWorld/contracts/SuperWorldCoinCrowdsale.sol",
  "compiler": {
    "name": "solc",
    "version": "0.4.24+commit.e67f0147.Emscripten.clang"
  },
  "schemaVersion": "2.0.0",
  "updatedAt": "2018-07-21T13:04:58.103Z"
}